:040000006FEF3FF06F
:107EDE00000172EF3FF0000E8A6E000E8B6E000EE8
:107EEE00866E010E886E010E0F01116F608C60841C
:107EFE00608E6080000E046E000E036E6450026E83
:107F0E00016A015003120250041263500312E90E6B
:107F1E00035C030E0458D8A097EF3FF099EF3FF0A3
:107F2E009CEF3FF08568F8EF3FF0850E035C030E83
:107F3E000458D8A0A5EF3FF0A7EF3FF0ABEF3FF00E
:107F4E007F0E856EF8EF3FF0210E035C030E045892
:107F5E00D8A0B4EF3FF0B6EF3FF0BAEF3FF03F0ED0
:107F6E00856EF8EF3FF0BD0E035C020E0458D8A0EC
:107F7E00C3EF3FF0C5EF3FF0C9EF3FF01F0E856E28
:107F8E00F8EF3FF0590E035C020E0458D8A0D2EF62
:107F9E003FF0D4EF3FF0D8EF3FF00F0E856EF8EFC5
:107FAE003FF0F50E035C010E0458D8A0E1EF3FF050
:107FBE00E3EF3FF0E7EF3FF0070E856EF8EF3FF08F
:107FCE00910E035C010E0458D8A0F0EF3FF0F2EFD3
:107FDE003FF0F6EF3FF0030E856EF8EF3FF0010E27
:107FEE00856E000E046E000E036E85EF3FF000EFFF
:027FFE0000F091
:020000040020DA
:10000000FF0FFF0FFF0FFF0FFF0FFF0FFF0FFF0F80
:020000040030CA
:0C000000EAFFFFFF9FFFFFFFFFFFFFFF75
:00000001FF
