:040000006EEF3FF070
:107EDC00000171EF3FF0000E8A6E000E8B6E000EEB
:107EEC00866E010E886E010E0F01116F608C60841E
:107EFC00608E6080000E046E000E036E6450026E85
:107F0C00016A015003120250041263500312E90E6D
:107F1C00035C030E0458D8A096EF3FF098EF3FF0A7
:107F2C009CEF3FF0800E856EF8EF3FF0850E035C02
:107F3C00030E0458D8A0A5EF3FF0A7EF3FF0ABEF2E
:107F4C003FF0400E856EF8EF3FF0210E035C030E00
:107F5C000458D8A0B4EF3FF0B6EF3FF0BAEF3FF0C3
:107F6C00200E856EF8EF3FF0BD0E035C020E045838
:107F7C00D8A0C3EF3FF0C5EF3FF0C9EF3FF0100EB4
:107F8C00856EF8EF3FF0590E035C020E0458D8A032
:107F9C00D2EF3FF0D4EF3FF0D8EF3FF0080E856EF4
:107FAC00F8EF3FF0F50E035C010E0458D8A0E1EF9A
:107FBC003FF0E3EF3FF0E7EF3FF0040E856EF8EF94
:107FCC003FF0910E035C010E0458D8A0F0EF3FF087
:107FDC00F2EF3FF0F6EF3FF0020E856EF8EF3FF058
:107FEC00010E856E000E046E000E036E84EF3FF0E2
:047FFC0000EF00F0A2
:020000040020DA
:10000000FF0FFF0FFF0FFF0FFF0FFF0FFF0FFF0F80
:020000040030CA
:0C000000EAFFFFFF9FFFFFFFFFFFFFFF75
:00000001FF
